:100000000C9461000C947E000C947E000C947E0095
:100010000C947E000C947E000C947E000C947E0068
:100020000C947E000C947E000C947E000C947E0058
:100030000C947E000C947E000C947E000C947E0048
:100040000C9459010C947E000C947E000C947E005C
:100050000C947E000C947E000C947E000C947E0028
:100060000C947E000C947E00000000002400270009
:100070002A000000000023002600290000000000E4
:10008000250028002B0004040404040404040202D4
:100090000202020203030303030301020408102007
:1000A0004080010204081020010204081020000012
:1000B0000008000201000003040700000000000027
:1000C000000011241FBECFEFD8E0DEBFCDBF11E08E
:1000D000A0E0B1E0E8E5F7E002C005900D92A430A1
:1000E000B107D9F721E0A4E0B1E001C01D92AD3025
:1000F000B207E1F70E94A3010C94AA030C9400003C
:10010000833081F028F4813099F08230A1F0089595
:100110008730A9F08830B9F08430D1F48091800024
:100120008F7D03C0809180008F7780938000089539
:1001300084B58F7702C084B58F7D84BD089580918A
:10014000B0008F7703C08091B0008F7D8093B000A6
:1001500008951F93CF93DF93282F30E0F901E255E4
:10016000FF4F8491F901E656FF4FD491F901EA5708
:10017000FF4FC491CC23C9F0162F81110E9480003B
:10018000EC2FF0E0EE0FFF1FE458FF4FA591B49164
:100190008FB7F894111105C09C91ED2FE095E923DC
:1001A00002C0EC91ED2BEC938FBFDF91CF911F91AB
:1001B00008953FB7F8948091090190910A01A091A8
:1001C0000B01B0910C0126B5A89B05C02F3F19F07B
:1001D0000196A11DB11D3FBFBA2FA92F982F8827C7
:1001E000820F911DA11DB11DBC01CD0142E0660F22
:1001F000771F881F991F4A95D1F708954F925F92F4
:100200006F927F928F929F92AF92BF92CF92DF9226
:10021000EF92FF926C010E94390327E030E040E04A
:1002200050E00E9447034B015C012FEF821A920AB3
:10023000A20AB20A61E0882D0E94A9000D2C000CD0
:10024000EE08FF080E94D9002B013C01C114D10423
:10025000E104F104F1F00E94D900DC01CB01841922
:100260009509A609B709883E9340A105B10570F329
:1002700081E0C81AD108E108F10828EE420E23E017
:10028000521E611C711CC114D104E104F10419F760
:10029000DDCF60E0882DFF90EF90DF90CF90BF9092
:1002A000AF909F908F907F906F905F904F900C9445
:1002B000A9001F920F920FB60F9211242F933F9314
:1002C0008F939F93AF93BF93809105019091060107
:1002D000A0910701B09108013091040123E0230FA0
:1002E0002D3720F40196A11DB11D05C026E8230F6E
:1002F0000296A11DB11D20930401809305019093E6
:100300000601A0930701B093080180910901909123
:100310000A01A0910B01B0910C010196A11DB11D24
:100320008093090190930A01A0930B01B0930C01F3
:10033000BF91AF919F918F913F912F910F900FBEE1
:100340000F901F901895789484B5826084BD84B511
:10035000816084BD85B5826085BD85B5816085BDC0
:1003600080916E00816080936E0010928100809178
:100370008100826080938100809181008160809300
:100380008100809180008160809380008091B10025
:1003900084608093B1008091B00081608093B00050
:1003A00080917A00846080937A0080917A008260E4
:1003B00080937A0080917A00816080937A008091A6
:1003C0007A00806880937A001092C100C1E0D0E08A
:1003D0008C2FFE01E656FF4F9491FE01EA57FF4F26
:1003E0002491222399F030E0220F331FF901E859BC
:1003F000FF4FA591B491F901E458FF4F2591349135
:100400002FB7F894EC91E92BEC932FBF60E00E949A
:10041000A9002196C830D105D9F680E480937C00EC
:1004200080917A00806480937A0080917A0086FDC2
:10043000FCCF609178008091790070E0782B072ED6
:10044000000C880B990B611571058105910511F060
:100450000E943E03C2EAD0E0FE0124910EE810E0C3
:10046000F80184918823C9F090E0880F991FFC015E
:10047000E859FF4FA591B49184589F4FFC014591D5
:1004800054919FB7F8943C91822F809583238C934D
:10049000FA018081282B20839FBF36EBE32E30E0CA
:1004A000F32E46E0842E912CA12CB12C50E0C52EC9
:1004B00050E0D52EF7018491FE016490F80174900C
:1004C000772071F081110E948000E72DF0E0EE0F9F
:1004D000FF1FEE58FF4FA591B4918C91682269F5EA
:1004E00084E6682E712C82E390E00E94FE00F1E029
:1004F0006F1A7108C1F794E6692E712CC3010E942E
:10050000FE0084E6680E711CECE46E16E4E07E06E4
:10051000A9F70E943903A50194010E944703DC0159
:10052000CB010196A11DB11D81309105A105B10539
:1005300059F461E084E00E94A900C114D10409F4D7
:10054000B9CF0E940000B6CF82309105A105B10558
:1005500019F461E081E03AC08330910539F461E03B
:1005600081E00E94A90061E084E030C08430910500
:1005700039F461E081E00E94A90061E083E00DC0F0
:100580008530910579F461E081E00E94A90061E085
:1005900083E00E94A90061E084E00E94A90061E07C
:1005A00085E014C0069749F661E081E00E94A90049
:1005B00061E082E00E94A90061E083E00E94A9005E
:1005C00061E085E00E94A90061E086E00E94A90048
:1005D00061E087E0B0CF8F929F92AF92BF92CF92AF
:1005E000DF92EF92FF92CF93DF93EC0168817981E4
:1005F0008A819B81611571058105910521F464E271
:1006000079ED8BE597E02DE133EF41E050E00E947A
:10061000470349015A019B01AC01A7EAB1E40E94DA
:1006200066036B017C01ACEEB4EFA50194010E945E
:100630007403DC01CB018C0D9D1DAE1DBF1DB7FFEA
:1006400003C00197A109B04888839983AA83BB831B
:10065000BC01CD019F77DF91CF91FF90EF90DF90AC
:10066000CF90BF90AF909F908F9008950E94EB0223
:10067000089580E091E00E94EB02089560930001EC
:100680007093010180930201909303010895052E58
:1006900097FB1EF400940E945E0357FD07D00E9452
:1006A000790307FC03D04EF40C945E0350954095FB
:1006B000309521953F4F4F4F5F4F0895909580950E
:1006C000709561957F4F8F4F9F4F08950E949B03B8
:1006D000A59F900DB49F900DA49F800D911D112496
:1006E0000895B7FF0C9466030E946603821B930B68
:1006F0000895A1E21A2EAA1BBB1BFD010DC0AA1F63
:10070000BB1FEE1FFF1FA217B307E407F50720F07A
:10071000A21BB30BE40BF50B661F771F881F991FF5
:100720001A9469F760957095809590959B01AC013E
:10073000BD01CF010895A29FB001B39FC001A39F47
:10074000700D811D1124911DB29F700D811D11240A
:08075000911D0895F894FFCFFC
:04075800010000009C
:00000001FF
